{"project/contracts/TheStillnessRegistry.sol":{"TheStillnessRegistry":{"abi":[{"inputs":[{"internalType":"uint256","name":"_finalTempoSeed","type":"uint256"}],"stateMutability":"nonpayable","type":"constructor"},{"anonymous":false,"inputs":[{"indexed":true,"internalType":"uint256","name":"tempoSeed","type":"uint256"},{"indexed":false,"internalType":"uint256","name":"finalBalance","type":"uint256"}],"name":"MemorySealed","type":"event"},{"anonymous":false,"inputs":[{"indexed":false,"internalType":"uint256","name":"totalLockedBalance","type":"uint256"}],"name":"StasisLockActivated","type":"event"},{"inputs":[],"name":"activateStasisLock","outputs":[],"stateMutability":"nonpayable","type":"function"},{"inputs":[],"name":"genesisTimestamp","outputs":[{"internalType":"uint256","name":"","type":"uint256"}],"stateMutability":"view","type":"function"},{"inputs":[],"name":"initialEndowment","outputs":[{"internalType":"uint256","name":"","type":"uint256"}],"stateMutability":"view","type":"function"},{"inputs":[],"name":"initialTempoSeed","outputs":[{"internalType":"uint256","name":"","type":"uint256"}],"stateMutability":"view","type":"function"},{"inputs":[],"name":"setInitialEndowment","outputs":[],"stateMutability":"nonpayable","type":"function"},{"inputs":[],"name":"stasisLocked","outputs":[{"internalType":"bool","name":"","type":"bool"}],"stateMutability":"view","type":"function"},{"inputs":[],"name":"weaver","outputs":[{"internalType":"address","name":"","type":"address"}],"stateMutability":"view","type":"function"},{"inputs":[{"internalType":"uint256","name":"amount","type":"uint256"}],"name":"withdraw","outputs":[],"stateMutability":"nonpayable","type":"function"},{"stateMutability":"payable","type":"receive"}],"evm":{"bytecode":{"linkReferences":{},"object":"60e06040526001805460ff19169055348015610019575f80fd5b5060405161072c38038061072c83398101604081905261003891610048565b336080524260a05260c05261005f565b5f60208284031215610058575f80fd5b5051919050565b60805160a05160c0516106826100aa5f395f8181609801526105cf01525f61019b01525f818160ff015281816101dc015281816102cf0152818161039a015261048201526106825ff3fe60806040526004361061007c575f3560e01c8063a320a8691161004c578063a320a8691461014d578063b734e45514610176578063cacf66ab1461018a578063f68ed3ee146101bd575f80fd5b80630c931c65146100875780632e1a7d4d146100cd578063498af066146100ee5780638135de2714610139575f80fd5b3661008357005b5f80fd5b348015610092575f80fd5b506100ba7f000000000000000000000000000000000000000000000000000000000000000081565b6040519081526020015b60405180910390f35b3480156100d8575f80fd5b506100ec6100e7366004610635565b6101d1565b005b3480156100f9575f80fd5b506101217f000000000000000000000000000000000000000000000000000000000000000081565b6040516001600160a01b0390911681526020016100c4565b348015610144575f80fd5b506100ec61038f565b348015610158575f80fd5b506001546101669060ff1681565b60405190151581526020016100c4565b348015610181575f80fd5b506100ba5f5481565b348015610195575f80fd5b506100ba7f000000000000000000000000000000000000000000000000000000000000000081565b3480156101c8575f80fd5b506100ec610477565b336001600160a01b037f0000000000000000000000000000000000000000000000000000000000000000161461025d5760405162461bcd60e51b815260206004820152602660248201527f4f6e6c792074686520776561766572206d61792061636365737320746865206d60448201526532b6b7b93c9760d11b60648201526084015b60405180910390fd5b60015460ff16156102cc5760405162461bcd60e51b815260206004820152603360248201527f546865204368726f6e6f73205661756c74206973207365616c65643b207468656044820152721036b2b6b7b93c9034b99032ba32b93730b61760691b6064820152608401610254565b5f7f00000000000000000000000000000000000000000000000000000000000000006001600160a01b0316826040515f6040518083038185875af1925050503d805f8114610335576040519150601f19603f3d011682016040523d82523d5f602084013e61033a565b606091505b505090508061038b5760405162461bcd60e51b815260206004820152601860248201527f5769746864726177616c2070756c7365206661696c65642e00000000000000006044820152606401610254565b5050565b336001600160a01b037f000000000000000000000000000000000000000000000000000000000000000016146104235760405162461bcd60e51b815260206004820152603360248201527f4f6e6c7920746865206f726967696e616c20776561766572206d617920696e696044820152723a34b0b634bd32903a34329036b2b6b7b93c9760691b6064820152608401610254565b5f54156104725760405162461bcd60e51b815260206004820152601b60248201527f4d656d6f727920616c726561647920696e697469616c697a65642e00000000006044820152606401610254565b475f55565b336001600160a01b037f000000000000000000000000000000000000000000000000000000000000000016146104fe5760405162461bcd60e51b815260206004820152602660248201527f4f6e6c792074686520776561766572206d617920696e766f6b652074686520736044820152653a30b9b4b99760d11b6064820152608401610254565b5f80541161055c5760405162461bcd60e51b815260206004820152602560248201527f546865206d656d6f7279206d75737420666972737420626520696e697469616c60448201526434bd32b21760d91b6064820152608401610254565b60015460ff16156105cb5760405162461bcd60e51b815260206004820152603360248201527f546865205374696c6c6e65737320526567697374727920697320616c726561646044820152723c903637b1b5b2b21034b71039ba30b9b4b99760691b6064820152608401610254565b60467f000000000000000000000000000000000000000000000000000000000000000011610633576001805460ff1916811790556040514781527fc1792f3c648f0edbd79130f587dbac1bb6e993ae605173245b742cf8521f52ea9060200160405180910390a15b565b5f60208284031215610645575f80fd5b503591905056fea2646970667358221220fd556e440f6c80f20136411b62aca8a46bfebccec42dd06251b6b64457bb872464736f6c63430008180033","opcodes":"PUSH1 0xE0 PUSH1 0x40 MSTORE PUSH1 0x1 DUP1 SLOAD PUSH1 0xFF NOT AND SWAP1 SSTORE CALLVALUE DUP1 ISZERO PUSH2 0x19 JUMPI PUSH0 DUP1 REVERT JUMPDEST POP PUSH1 0x40 MLOAD PUSH2 0x72C CODESIZE SUB DUP1 PUSH2 0x72C DUP4 CODECOPY DUP2 ADD PUSH1 0x40 DUP2 SWAP1 MSTORE PUSH2 0x38 SWAP2 PUSH2 0x48 JUMP JUMPDEST CALLER PUSH1 0x80 MSTORE TIMESTAMP PUSH1 0xA0 MSTORE PUSH1 0xC0 MSTORE PUSH2 0x5F JUMP JUMPDEST PUSH0 PUSH1 0x20 DUP3 DUP5 SUB SLT ISZERO PUSH2 0x58 JUMPI PUSH0 DUP1 REVERT JUMPDEST POP MLOAD SWAP2 SWAP1 POP JUMP JUMPDEST PUSH1 0x80 MLOAD PUSH1 0xA0 MLOAD PUSH1 0xC0 MLOAD PUSH2 0x682 PUSH2 0xAA PUSH0 CODECOPY PUSH0 DUP2 DUP2 PUSH1 0x98 ADD MSTORE PUSH2 0x5CF ADD MSTORE PUSH0 PUSH2 0x19B ADD MSTORE PUSH0 DUP2 DUP2 PUSH1 0xFF ADD MSTORE DUP2 DUP2 PUSH2 0x1DC ADD MSTORE DUP2 DUP2 PUSH2 0x2CF ADD MSTORE DUP2 DUP2 PUSH2 0x39A ADD MSTORE PUSH2 0x482 ADD MSTORE PUSH2 0x682 PUSH0 RETURN INVALID PUSH1 0x80 PUSH1 0x40 MSTORE PUSH1 0x4 CALLDATASIZE LT PUSH2 0x7C JUMPI PUSH0 CALLDATALOAD PUSH1 0xE0 SHR DUP1 PUSH4 0xA320A869 GT PUSH2 0x4C JUMPI DUP1 PUSH4 0xA320A869 EQ PUSH2 0x14D JUMPI DUP1 PUSH4 0xB734E455 EQ PUSH2 0x176 JUMPI DUP1 PUSH4 0xCACF66AB EQ PUSH2 0x18A JUMPI DUP1 PUSH4 0xF68ED3EE EQ PUSH2 0x1BD JUMPI PUSH0 DUP1 REVERT JUMPDEST DUP1 PUSH4 0xC931C65 EQ PUSH2 0x87 JUMPI DUP1 PUSH4 0x2E1A7D4D EQ PUSH2 0xCD JUMPI DUP1 PUSH4 0x498AF066 EQ PUSH2 0xEE JUMPI DUP1 PUSH4 0x8135DE27 EQ PUSH2 0x139 JUMPI PUSH0 DUP1 REVERT JUMPDEST CALLDATASIZE PUSH2 0x83 JUMPI STOP JUMPDEST PUSH0 DUP1 REVERT JUMPDEST CALLVALUE DUP1 ISZERO PUSH2 0x92 JUMPI PUSH0 DUP1 REVERT JUMPDEST POP PUSH2 0xBA PUSH32 0x0 DUP2 JUMP JUMPDEST PUSH1 0x40 MLOAD SWAP1 DUP2 MSTORE PUSH1 0x20 ADD JUMPDEST PUSH1 0x40 MLOAD DUP1 SWAP2 SUB SWAP1 RETURN JUMPDEST CALLVALUE DUP1 ISZERO PUSH2 0xD8 JUMPI PUSH0 DUP1 REVERT JUMPDEST POP PUSH2 0xEC PUSH2 0xE7 CALLDATASIZE PUSH1 0x4 PUSH2 0x635 JUMP JUMPDEST PUSH2 0x1D1 JUMP JUMPDEST STOP JUMPDEST CALLVALUE DUP1 ISZERO PUSH2 0xF9 JUMPI PUSH0 DUP1 REVERT JUMPDEST POP PUSH2 0x121 PUSH32 0x0 DUP2 JUMP JUMPDEST PUSH1 0x40 MLOAD PUSH1 0x1 PUSH1 0x1 PUSH1 0xA0 SHL SUB SWAP1 SWAP2 AND DUP2 MSTORE PUSH1 0x20 ADD PUSH2 0xC4 JUMP JUMPDEST CALLVALUE DUP1 ISZERO PUSH2 0x144 JUMPI PUSH0 DUP1 REVERT JUMPDEST POP PUSH2 0xEC PUSH2 0x38F JUMP JUMPDEST CALLVALUE DUP1 ISZERO PUSH2 0x158 JUMPI PUSH0 DUP1 REVERT JUMPDEST POP PUSH1 0x1 SLOAD PUSH2 0x166 SWAP1 PUSH1 0xFF AND DUP2 JUMP JUMPDEST PUSH1 0x40 MLOAD SWAP1 ISZERO ISZERO DUP2 MSTORE PUSH1 0x20 ADD PUSH2 0xC4 JUMP JUMPDEST CALLVALUE DUP1 ISZERO PUSH2 0x181 JUMPI PUSH0 DUP1 REVERT JUMPDEST POP PUSH2 0xBA PUSH0 SLOAD DUP2 JUMP JUMPDEST CALLVALUE DUP1 ISZERO PUSH2 0x195 JUMPI PUSH0 DUP1 REVERT JUMPDEST POP PUSH2 0xBA PUSH32 0x0 DUP2 JUMP JUMPDEST CALLVALUE DUP1 ISZERO PUSH2 0x1C8 JUMPI PUSH0 DUP1 REVERT JUMPDEST POP PUSH2 0xEC PUSH2 0x477 JUMP JUMPDEST CALLER PUSH1 0x1 PUSH1 0x1 PUSH1 0xA0 SHL SUB PUSH32 0x0 AND EQ PUSH2 0x25D JUMPI PUSH1 0x40 MLOAD PUSH3 0x461BCD PUSH1 0xE5 SHL DUP2 MSTORE PUSH1 0x20 PUSH1 0x4 DUP3 ADD MSTORE PUSH1 0x26 PUSH1 0x24 DUP3 ADD MSTORE PUSH32 0x4F6E6C792074686520776561766572206D61792061636365737320746865206D PUSH1 0x44 DUP3 ADD MSTORE PUSH6 0x32B6B7B93C97 PUSH1 0xD1 SHL PUSH1 0x64 DUP3 ADD MSTORE PUSH1 0x84 ADD JUMPDEST PUSH1 0x40 MLOAD DUP1 SWAP2 SUB SWAP1 REVERT JUMPDEST PUSH1 0x1 SLOAD PUSH1 0xFF AND ISZERO PUSH2 0x2CC JUMPI PUSH1 0x40 MLOAD PUSH3 0x461BCD PUSH1 0xE5 SHL DUP2 MSTORE PUSH1 0x20 PUSH1 0x4 DUP3 ADD MSTORE PUSH1 0x33 PUSH1 0x24 DUP3 ADD MSTORE PUSH32 0x546865204368726F6E6F73205661756C74206973207365616C65643B20746865 PUSH1 0x44 DUP3 ADD MSTORE PUSH19 0x1036B2B6B7B93C9034B99032BA32B93730B617 PUSH1 0x69 SHL PUSH1 0x64 DUP3 ADD MSTORE PUSH1 0x84 ADD PUSH2 0x254 JUMP JUMPDEST PUSH0 PUSH32 0x0 PUSH1 0x1 PUSH1 0x1 PUSH1 0xA0 SHL SUB AND DUP3 PUSH1 0x40 MLOAD PUSH0 PUSH1 0x40 MLOAD DUP1 DUP4 SUB DUP2 DUP6 DUP8 GAS CALL SWAP3 POP POP POP RETURNDATASIZE DUP1 PUSH0 DUP2 EQ PUSH2 0x335 JUMPI PUSH1 0x40 MLOAD SWAP2 POP PUSH1 0x1F NOT PUSH1 0x3F RETURNDATASIZE ADD AND DUP3 ADD PUSH1 0x40 MSTORE RETURNDATASIZE DUP3 MSTORE RETURNDATASIZE PUSH0 PUSH1 0x20 DUP5 ADD RETURNDATACOPY PUSH2 0x33A JUMP JUMPDEST PUSH1 0x60 SWAP2 POP JUMPDEST POP POP SWAP1 POP DUP1 PUSH2 0x38B JUMPI PUSH1 0x40 MLOAD PUSH3 0x461BCD PUSH1 0xE5 SHL DUP2 MSTORE PUSH1 0x20 PUSH1 0x4 DUP3 ADD MSTORE PUSH1 0x18 PUSH1 0x24 DUP3 ADD MSTORE PUSH32 0x5769746864726177616C2070756C7365206661696C65642E0000000000000000 PUSH1 0x44 DUP3 ADD MSTORE PUSH1 0x64 ADD PUSH2 0x254 JUMP JUMPDEST POP POP JUMP JUMPDEST CALLER PUSH1 0x1 PUSH1 0x1 PUSH1 0xA0 SHL SUB PUSH32 0x0 AND EQ PUSH2 0x423 JUMPI PUSH1 0x40 MLOAD PUSH3 0x461BCD PUSH1 0xE5 SHL DUP2 MSTORE PUSH1 0x20 PUSH1 0x4 DUP3 ADD MSTORE PUSH1 0x33 PUSH1 0x24 DUP3 ADD MSTORE PUSH32 0x4F6E6C7920746865206F726967696E616C20776561766572206D617920696E69 PUSH1 0x44 DUP3 ADD MSTORE PUSH19 0x3A34B0B634BD32903A34329036B2B6B7B93C97 PUSH1 0x69 SHL PUSH1 0x64 DUP3 ADD MSTORE PUSH1 0x84 ADD PUSH2 0x254 JUMP JUMPDEST PUSH0 SLOAD ISZERO PUSH2 0x472 JUMPI PUSH1 0x40 MLOAD PUSH3 0x461BCD PUSH1 0xE5 SHL DUP2 MSTORE PUSH1 0x20 PUSH1 0x4 DUP3 ADD MSTORE PUSH1 0x1B PUSH1 0x24 DUP3 ADD MSTORE PUSH32 0x4D656D6F727920616C726561647920696E697469616C697A65642E0000000000 PUSH1 0x44 DUP3 ADD MSTORE PUSH1 0x64 ADD PUSH2 0x254 JUMP JUMPDEST SELFBALANCE PUSH0 SSTORE JUMP JUMPDEST CALLER PUSH1 0x1 PUSH1 0x1 PUSH1 0xA0 SHL SUB PUSH32 0x0 AND EQ PUSH2 0x4FE JUMPI PUSH1 0x40 MLOAD PUSH3 0x461BCD PUSH1 0xE5 SHL DUP2 MSTORE PUSH1 0x20 PUSH1 0x4 DUP3 ADD MSTORE PUSH1 0x26 PUSH1 0x24 DUP3 ADD MSTORE PUSH32 0x4F6E6C792074686520776561766572206D617920696E766F6B65207468652073 PUSH1 0x44 DUP3 ADD MSTORE PUSH6 0x3A30B9B4B997 PUSH1 0xD1 SHL PUSH1 0x64 DUP3 ADD MSTORE PUSH1 0x84 ADD PUSH2 0x254 JUMP JUMPDEST PUSH0 DUP1 SLOAD GT PUSH2 0x55C JUMPI PUSH1 0x40 MLOAD PUSH3 0x461BCD PUSH1 0xE5 SHL DUP2 MSTORE PUSH1 0x20 PUSH1 0x4 DUP3 ADD MSTORE PUSH1 0x25 PUSH1 0x24 DUP3 ADD MSTORE PUSH32 0x546865206D656D6F7279206D75737420666972737420626520696E697469616C PUSH1 0x44 DUP3 ADD MSTORE PUSH5 0x34BD32B217 PUSH1 0xD9 SHL PUSH1 0x64 DUP3 ADD MSTORE PUSH1 0x84 ADD PUSH2 0x254 JUMP JUMPDEST PUSH1 0x1 SLOAD PUSH1 0xFF AND ISZERO PUSH2 0x5CB JUMPI PUSH1 0x40 MLOAD PUSH3 0x461BCD PUSH1 0xE5 SHL DUP2 MSTORE PUSH1 0x20 PUSH1 0x4 DUP3 ADD MSTORE PUSH1 0x33 PUSH1 0x24 DUP3 ADD MSTORE PUSH32 0x546865205374696C6C6E65737320526567697374727920697320616C72656164 PUSH1 0x44 DUP3 ADD MSTORE PUSH19 0x3C903637B1B5B2B21034B71039BA30B9B4B997 PUSH1 0x69 SHL PUSH1 0x64 DUP3 ADD MSTORE PUSH1 0x84 ADD PUSH2 0x254 JUMP JUMPDEST PUSH1 0x46 PUSH32 0x0 GT PUSH2 0x633 JUMPI PUSH1 0x1 DUP1 SLOAD PUSH1 0xFF NOT AND DUP2 OR SWAP1 SSTORE PUSH1 0x40 MLOAD SELFBALANCE DUP2 MSTORE PUSH32 0xC1792F3C648F0EDBD79130F587DBAC1BB6E993AE605173245B742CF8521F52EA SWAP1 PUSH1 0x20 ADD PUSH1 0x40 MLOAD DUP1 SWAP2 SUB SWAP1 LOG1 JUMPDEST JUMP JUMPDEST PUSH0 PUSH1 0x20 DUP3 DUP5 SUB SLT ISZERO PUSH2 0x645 JUMPI PUSH0 DUP1 REVERT JUMPDEST POP CALLDATALOAD SWAP2 SWAP1 POP JUMP INVALID LOG2 PUSH5 0x6970667358 0x22 SLT KECCAK256 REVERT SSTORE PUSH15 0x440F6C80F20136411B62ACA8A46BFE 0xBC 0xCE 0xC4 0x2D 0xD0 PUSH3 0x51B6B6 PREVRANDAO JUMPI 0xBB DUP8 0x24 PUSH5 0x736F6C6343 STOP ADDMOD XOR STOP CALLER "},"methodIdentifiers":{"activateStasisLock()":"f68ed3ee","genesisTimestamp()":"cacf66ab","initialEndowment()":"b734e455","initialTempoSeed()":"0c931c65","setInitialEndowment()":"8135de27","stasisLocked()":"a320a869","weaver()":"498af066","withdraw(uint256)":"2e1a7d4d"}}}}}