{
  "_format": "hh3-artifact-1",
  "contractName": "ShadowAnchor",
  "sourceName": "contracts/ShadowAnchor.sol",
  "abi": [
    {
      "anonymous": false,
      "inputs": [
        {
          "indexed": true,
          "internalType": "address",
          "name": "scribe",
          "type": "address"
        },
        {
          "indexed": false,
          "internalType": "string",
          "name": "message",
          "type": "string"
        },
        {
          "indexed": false,
          "internalType": "uint256",
          "name": "timestamp",
          "type": "uint256"
        }
      ],
      "name": "Etched",
      "type": "event"
    },
    {
      "inputs": [
        {
          "internalType": "string",
          "name": "_message",
          "type": "string"
        }
      ],
      "name": "etch",
      "outputs": [],
      "stateMutability": "nonpayable",
      "type": "function"
    },
    {
      "inputs": [],
      "name": "getWhisperCount",
      "outputs": [
        {
          "internalType": "uint256",
          "name": "",
          "type": "uint256"
        }
      ],
      "stateMutability": "view",
      "type": "function"
    },
    {
      "inputs": [],
      "name": "getWhispers",
      "outputs": [
        {
          "components": [
            {
              "internalType": "address",
              "name": "scribe",
              "type": "address"
            },
            {
              "internalType": "string",
              "name": "message",
              "type": "string"
            },
            {
              "internalType": "uint256",
              "name": "timestamp",
              "type": "uint256"
            }
          ],
          "internalType": "struct ShadowAnchor.Whisper[]",
          "name": "",
          "type": "tuple[]"
        }
      ],
      "stateMutability": "view",
      "type": "function"
    },
    {
      "inputs": [
        {
          "internalType": "uint256",
          "name": "",
          "type": "uint256"
        }
      ],
      "name": "whispers",
      "outputs": [
        {
          "internalType": "address",
          "name": "scribe",
          "type": "address"
        },
        {
          "internalType": "string",
          "name": "message",
          "type": "string"
        },
        {
          "internalType": "uint256",
          "name": "timestamp",
          "type": "uint256"
        }
      ],
      "stateMutability": "view",
      "type": "function"
    }
  ],
  "bytecode": "0x608060405234801561000f575f80fd5b506106df8061001d5f395ff3fe608060405234801561000f575f80fd5b506004361061004a575f3560e01c80630f7635901461004e57806329a2bf70146100795780635a0a539b1461008e5780638607b28b146100a3575b5f80fd5b61006161005c366004610370565b6100b3565b604051610070939291906103ca565b60405180910390f35b610081610176565b60405161007091906103fd565b6100a161009c36600461049b565b610282565b005b5f54604051908152602001610070565b5f81815481106100c1575f80fd5b5f918252602090912060039091020180546001820180546001600160a01b039092169350906100ef90610546565b80601f016020809104026020016040519081016040528092919081815260200182805461011b90610546565b80156101665780601f1061013d57610100808354040283529160200191610166565b820191905f5260205f20905b81548152906001019060200180831161014957829003601f168201915b5050505050908060020154905083565b60605f805480602002602001604051908101604052809291908181526020015f905b82821015610279575f84815260209081902060408051606081019091526003850290910180546001600160a01b0316825260018101805492939192918401916101e090610546565b80601f016020809104026020016040519081016040528092919081815260200182805461020c90610546565b80156102575780601f1061022e57610100808354040283529160200191610257565b820191905f5260205f20905b81548152906001019060200180831161023a57829003601f168201915b5050505050815260200160028201548152505081526020019060010190610198565b50505050905090565b604080516060810182523381526020810183815242928201929092525f805460018101825590805281517f290decd9548b62a8d60345a988386fc84ba6bc95484008f6362f93160ef3e563600390920291820180546001600160a01b0319166001600160a01b0390921691909117815592519192917f290decd9548b62a8d60345a988386fc84ba6bc95484008f6362f93160ef3e5649091019061032690826105cc565b506040918201516002909101555133907f722e075142c53f6ddab9d6a3c26b2a192290a05d4afa47d7fc9315e652873978906103659084904290610688565b60405180910390a250565b5f60208284031215610380575f80fd5b5035919050565b5f81518084525f5b818110156103ab5760208185018101518683018201520161038f565b505f602082860101526020601f19601f83011685010191505092915050565b6001600160a01b03841681526060602082018190525f906103ed90830185610387565b9050826040830152949350505050565b5f6020808301818452808551808352604092508286019150828160051b8701018488015f5b8381101561047957888303603f19018552815180516001600160a01b031684528781015160608986018190529061045b82870182610387565b92890151958901959095525094870194925090860190600101610422565b509098975050505050505050565b634e487b7160e01b5f52604160045260245ffd5b5f602082840312156104ab575f80fd5b813567ffffffffffffffff808211156104c2575f80fd5b818401915084601f8301126104d5575f80fd5b8135818111156104e7576104e7610487565b604051601f8201601f19908116603f0116810190838211818310171561050f5761050f610487565b81604052828152876020848701011115610527575f80fd5b826020860160208301375f928101602001929092525095945050505050565b600181811c9082168061055a57607f821691505b60208210810361057857634e487b7160e01b5f52602260045260245ffd5b50919050565b601f8211156105c7575f81815260208120601f850160051c810160208610156105a45750805b601f850160051c820191505b818110156105c3578281556001016105b0565b5050505b505050565b815167ffffffffffffffff8111156105e6576105e6610487565b6105fa816105f48454610546565b8461057e565b602080601f83116001811461062d575f84156106165750858301515b5f19600386901b1c1916600185901b1785556105c3565b5f85815260208120601f198616915b8281101561065b5788860151825594840194600190910190840161063c565b508582101561067857878501515f19600388901b60f8161c191681555b5050505050600190811b01905550565b604081525f61069a6040830185610387565b9050826020830152939250505056fea26469706673582212206c986d5cfa7b597ccfd710754549ee8fd43751587a487f03afc3c91c566439f364736f6c63430008140033",
  "linkReferences": {},
  "deployedLinkReferences": {},
  "immutableReferences": {},
  "inputSourceName": "project/contracts/ShadowAnchor.sol",
  "buildInfoId": "solc-0_8_20-8197378ab970add4fd86455bc3ca3a37f891afb8"
}